:040000006F00900CF1
:10000400000000000000000090000020E603002033
:10001400A9BDF9F5900000200000000000000000D8
:10002400900000209000002000000000000000006C
:10003400900000200000000090000020000000005C
:1000440092000020900000209000002090000020EA
:10005400900000209000002090000020000000008C
:100064009000002090000020900000204601002015
:1000740090000020900000209000002090000020BC
:1000840090000020900000208A01002090000020B1
:1000940001A03727004083476700858BB5C7854794
:1000A4002303F7008D47A383F1848D472390F184C4
:1000B40013854183971700009387378123ACF1821E
:1000C400971000E0E780C0931387C1841C438D46DA
:1000D400638ED7029546638BD7029DE7834747011A
:1000E40093F7F70FB337F000A380F186A38F018451
:1000F400239C018423800186239D018423A80184F9
:1001040023AA0184239E018473002030B747004052
:1001140083C757C0858BEDFB1385C184971000E01E
:10012400E780C093A38F0184239C018423800186EC
:10013400239D0184239E018423A8018423AA01848E
:10014400A3800186D1B7373700408347474099469B
:10015400BD8B6388D7023147639BE7003737004084
:1001640083475740858B85C383478740D5BF114755
:10017400639BE70013854183971000E0E78060DA12
:1001840019A0834757407300203037470040834706
:1001940047C09946BD8B6388D7023147639BE7000C
:1001A40037470040834757C0858B85C3834787C043
:1001B400D5BF1147639BE7001385C184971000E006
:1001C400E780C0F719A0834757C073002030B7F702
:1001D40007000111944B13078008F337078093F746
:1001E40087083EC20F100000B717004013087005BF
:1001F40023800705930580FA2380B7040F100000BD
:1002040003C6B7041376F60DA385C7042380070439
:100214001246732606800F1000001376050255CE91
:10022400F336078093F6860836C40F100000238047
:1002340007052380B7040F100000B70614007D895A
:10024400558D88C7010001000100010023800704C7
:10025400A246F3A606800F100000733707801377B9
:1002640087083AC60F100000238007052380B704CF
:100274000F1000000F1000003727004093061005F0
:10028400A303D78023800704B247F3A707800F1086
:10029400000093078008F3B7078093F787083ECEE2
:1002A4000F100000B7170040130770052380E70400
:1002B400130780FA2380E7040F10000003C7B70474
:1002C40013670708A385E70423800704F247F3A70D
:1002D40007800F100000056182801376050459C25F
:1002E400733607801376860832C80F100000238007
:1002F40007052380B7040F10000037061400130607
:1003040006047D89518D88C70100010001000100A8
:10031400238007044246732606800F1000007337BB
:100324000780137787083ACA0F1000002380070557
:100334002380B7040F100000A54793F6F60F639EC1
:10034400F600B727004013073005A383E780B717EB
:10035400004023800704D2470DBFB727004013078E
:100364002005E5B773370780137787083ACC0F1059
:100374000000238007052380B7040F10000098476E
:100384001367070C98C723800704E247FDBD0111DA
:10039400814601468145114506CE7D2A9307800892
:1003A400F3B7078093F787083EC60F100000B7170E
:1003B4000040130770052380E704130780FA2380A5
:1003C400E7040F10000003C76704136717002383B3
:1003D400E70423800704B247F3A707800F10000047
:1003E400F2400561828041118146014681451145F3
:1003F400A52213078008F337078093F787083EC4C4
:100404000F100000B7170040130670052380C704BF
:10041400930680FA2380D7040F100000FD5523961D
:10042400B70223800704A245F3A505800F1000003E
:1004340073370780137787083AC60F1000002380AC
:10044400C7042380D7040F10000003C76704136791
:1004540017002383E70423800704B247F3A7078028
:100464000F10000001A0BD473305F50201007D1502
:1004740075FD8280411122C426C206C6AA840144A5
:1004840063179400B24022449244410182800504DF
:100494001305803E4204C13F4180DDB7230304803D
:1004A40015472303E48001002302A480828083078C
:1004B4006480E3CE07FE2303048082808307648084
:1004C400E3CE07FE03454480828083076480E3CE45
:1004D40007FE2302A4808280411126C44AC24EC072
:1004E40006C61377F50BAD47AA892E899544630692
:1004F400F70019456537653F8D444E854537FD59ED
:10050400FD1463983401B240A24412498249410166
:100514008280135509011375F50F453F2209CDB7A4
:10052400011126CC06CEB704080051371545BD3756
:10053400713769372AC6A53F32459377150089EB91
:10054400136515001375F50FF240E24405618280CE
:10055400FD14E9FC0145CDBF397126DC4ADA4ED8D9
:1005640052D656D45AD25ED006DE62CE66CCB7E7F7
:1005740000E07D5783AA070022C603AA470023A0F0
:10058400E71823A2E718B717004013077005238064
:10059400E704130780FA2380E70483C74704930B17
:1005A40075FFB684E20793FBFB0F8546AA892E8B61
:1005B400328937240040E187015763FA76016308E2
:1005C400D5008946130700026313D5000157D98F5C
:1005D40093F7F70FB71C00402382FC041147230351
:1005E400E4801305F00F5D3D094CD135636D7C113A
:1005F400B7050700DA9537870700795563F2E504F4
:10060400B3879500636EF702370B0800A94733EBF5
:1006140065016399F90689E48144513D26850DA05D
:10062400DA850945553D05090345F9FFFD14050B18
:10063400693D81C49377FB0FFDF7DD3569FD7D5579
:10064400B7170040130770052380E704130780FAE7
:100654002380E70403C74704418B2382E704F25055
:10066400B7E700E023A0571123A24711E254324414
:100674005259C259325AA25A125B825B724CE24CF2
:1006840021618280A5476395F90685691309F00FF6
:10069400B3069900B3742B01B6941349F9FFB374EC
:1006A4009900856B33796901416B9387F9FFB3F73F
:1006B400270199E363FC340193D94900C147E3E678
:1006C40037FF99BF0569C1697D19D9B71305800D35
:1006D4006388690113050002638479011305100816
:1006E400CA85DD3B353D21DD4E99B3843441D9B70C
:1006F400DA852D45D533CA94E30099F205097D3B8B
:10070400A30FA9FED5BF9387F9FF93F7F70F636192
:10071400FC0C83C71C0413073008631FF704370756
:100724000800636BEB04B3079B00B706100063F586
:10073400D704334BEB0089476393F9068980D54985
:10074400E38C04ECDA850945413B11090327C9FF11
:1007540091472320E48003076480E34E07FE2303CC
:100764003481FD17EDFBFD14110B81C49377FB0F4E
:10077400E9FF7D3371F5E1B5B717004003C75704AE
:10078400B70708001377070219E3B78707007955FD
:10079400E378FBEA33079B00E3FFE7F855B58547A9
:1007A400E382F9F2DA852D45053B9389F4FFE3856D
:1007B40004E6293393F7390091EB83260480032759
:1007C400090093074900E39AE6E43E89CE84F1BF29
:1007D400B5476396F9001305900BC93135BDB14790
:1007E4001305B00AE38BF9FE99476391F904B70541
:1007F4000800B365BB002D45C53181448D4BA1492B
:10080400753963967401832704802320F9008504D5
:10081400E39834FF8327048013172B0163550700E3
:100824002312F900D5BB2322F900FDB39D47639938
:10083400F90281451305B0044531BD442320090064
:1008440023220900FD599D3993F77400CA9703C701
:100854000700FD14398D2380A700E39634FF6DBB98
:10086400A1476392F9046D398144630D0B008D47F0
:100874009304C0036308FB009304000563048B0125
:10088400930440041375C507E30895D81945393115
:1008940039390545213126850D3909453D3149311F
:1008A400E31C05D669BB91476399F90013056006FB
:1008B400F536F53E130590090DB7E38F09D4F154CD
:0408C400A9BB0000CC
:1008C800971100209381818117610020130101F3A2
:1008D8001305400097F5FF1F938545721706002002
:1008E800130606FE63FAC5008322050023A05500FF
:1008F80011059105E3EAC5FE17150000130545BC6F
:10090800970500209385C5FB17060020130606FDF2
:1009180063FAC5008322050023A05500110591053F
:10092800E3EAC5FE17050020130545FB93854186BC
:100938006377B500232005001105E36DB5FEFD4280
:10094800739002BC8D42739042809302800873902A
:10095800023097F2FF1F9382626A93E2320073902B
:100968005230970200009382C229739012347300A8
:10097800203037370040834727401A0593F7F7039D
:10098800C98F93F7F70F2301F7408280374700405C
:10099800834727C01A0593F7F703C98F93F7F70F13
:1009A8002301F7C08280411106C622C489472A84E0
:1009B8001CC18D4513050020EF003013854723091E
:1009C800F40001457D3785472318F400B2402244DE
:1009D8004101828003473501930750051377F70FCC
:1009E80009C78347350193F7F70F373700402304CA
:1009F800F74082801C41411122C406C60D472A8453
:100A0800638CE70015476389E7009DEF693F2285FE
:100A18002244B24041017DBFB737004083C75740E9
:100A2800858B9DE3A30A0400A30904002316040090
:100A3800230A0400231704002322040023240400AB
:100A4800231804002285D9B7B2402244410182808C
:100A5800411106C622C4232005002A8485451305B2
:100A68000002EF009008130500028545EF00F0072B
:100A780083474401B240014593F7F70FB337F000BD
:100A8800A30AF4008547231804002309F40022442C
:100A98004101EDBD8357C50021476366F700035741
:100AA800C5004207418381463736004063D5E602D8
:100AB8008355C5005C4185068D8F83C7070093F772
:100AC800F70F2304F6408357C500FD17C207C183FB
:100AD8002316F500E1BF8280411122C406C62A848C
:100AE80023200500854513050020EF0010008347EB
:100AF800440193F7F70F81C78547A30AF400A309B8
:100B0800040023160400230A0400231704002322E8
:100B180004002324040023180400B24022444101A5
:100B28008280411106C622C489472A841CC18D458A
:100B380013050002EF00607B85472309F400014597
:100B4800B13585472318F400B24022444101828020
:100B58008357C50021476366F7000357C50042075E
:100B6800418381463746004063D5E6028355C50078
:100B78005C4185068D8F83C7070093F7F70F230421
:100B8800F6C08357C500FD17C207C1832316F500B9
:100B9800E1BF8280994763F7B7009D472309F500B5
:100BA8000D45C1BB8D4763F7B70091472309F50091
:100BB8000945C5BF854763F7B70089472309F5008D
:100BC8000545C5B72309F5000145E1BF411106C632
:100BD80022C491472A841CC18D4513050020EF00CB
:100BE800C0708355C400228575378357C400B2404E
:100BF800C207C1832318F40022444101828079711D
:100C08001305800406D622D426D24AD0B714004051
:100C18004ECE52CC56CA5AC85EC697F0FF1FE78020
:100C2800C05A83A7840A85451305001093E7072057
:100C380023A4F40AEF00606B3734004085451305A0
:100C48000020930B70F855250D4B23017441A30127
:100C58006441930A0004A3005441854923073441A1
:100C6800EF00607D294933072503371A0E00014537
:100C78003357470315073357270342074183231682
:100C8800E440C5390347144085454145136757007B
:100C9800A300E44003470440136787002300E440AF
:100CA80003A7840A374400401367070223A4E40A11
:100CB8002D2D8545130500020D2D230174C1A301B7
:100CC80064C1A30054C1230734C1EF00C076B30741
:100CD80025030145B3D74703170A0020130A4AC062
:100CE8009507B3D72703C207C1832316F4C0793900
:100CF800834714C08D45216593E75700A300F4C0CE
:100D0800834704C093E787002300F4C0512583A7D5
:100D1800C40C21678D45D98F23A6F40C11658D2D40
:100D280083A7C40C116713844183D98F23A6F40CBD
:100D38000947B72700402380E70011472380E700D1
:100D480037975B00130707D8D8C7238137013707C0
:100D58000008B7E700E023A0E710114723A2E71037
:100D6800416723A0E71005499389C184970A0020A9
:100D7800938ACAB64E8B8347540193F7F70FE9C796
:100D880083A7840C2167D98F23A4F40C83A7840C30
:100D98001167B98F23A4F40C184081476316270103
:100DA8008347440193F7F70F170700202308F7B28A
:100DB80083C70A0093F7F70F95C783C70A0093F70D
:100DC800F70F2391F184D29723AEF1821C40639BE5
:100DD80027018357C400C207C183B5CF2285FD33DD
:100DE80022854D3903A7090081476316270183C768
:100DF800490193F7F70F170700202301F7AE83C7C0
:100E08000A0093F7F70FA5DB83C70A0093F7F70FDC
:100E1800239DF1841387C181BA9723AAF18483A7FC
:100E28000900E39327F51385C184E53983473B011E
:100E380093F7F70F8DCF83473B0193F7F70F3747AA
:100E480000402304F7C005B783A7C40C2167D98FD6
:100E580023A6F40C25BF8357E4002285C207C1836B
:100E680089C791362285BD36B5BFBD31A5BF930769
:100E78005005F1B7011106CE22CC034625010147E2
:100E8800B73600406353C70283C78640050793F708
:100E9800F70FA307F1008347F10083570501FD17FA
:100EA800C207C1832318F500F1BF8357C500C207E5
:100EB800C18391CF18419147631BF7008355C50043
:100EC8002A84C93922856244F2400561E1B6835714
:100ED8000501C207C18399C76244F24083550501E1
:100EE80005614DB9F240624405618280411106C630
:100EF80022C495472A841CC1854513050020F52680
:100F0800854513050020D5268355E4002285224413
:100F1800B240410141B11C41411122C426C206C65A
:100F28008D442A84638B970863EAF4000947638732
:100F3800E704B24022449244410182801147638C05
:100F4800E70C9546014737360040E394D7FE8347C0
:100F580024016354F70E8356E4001C440507958F5B
:100F68008346864093F6F60F2380D7008357E40024
:100F7800FD17C207C1832317F400D1BFE53D83479E
:100F8800440193F7F70F99EF04C013050020854536
:100F9800A92E85472309F4002244B2409244014512
:100FA8004101C1BA8357E400C207C183D9D322855E
:100FB8002244B2409244410115BFB737004083C76D
:100FC80087401307500593F7F70F230AF500834767
:100FD8004501631EF7008357C500C207C183A1CB33
:100FE800F53622852244B2409244410165B48357C4
:100FF800E500C207C18381E785471CC11DBF835730
:10100800C500C207C183E9FF793A22852244B2406C
:1010180092444101C1B2B93D83570401C207C1835B
:10102800E39907F08357E400C207C183C9F3228517
:101038002244B2409244410145B48355E4002285DC
:10104800913E8357E400C207C183E39407EEC5B716
:10105800994763F7B7009D472309F5000D453DB251
:101068008D4763F7B70091472309F5000945C5BFC8
:10107800854763F7B70089472309F5000545C5B7D4
:101088002309F5000145E1BF411106C622C4914775
:101098002A841CC18D4513050002812C8355C40088
:1010A80022857D378357C400B240C207C183231805
:1010B800F400224441018280011106CE22CC03466D
:1010C80025010147B74600406353C70283C786C05E
:1010D800050793F7F70FA307F1008347F10083573C
:1010E8000501FD17C207C1832318F500F1BF835717
:1010F800C500C207C18391CF18419147631BF70010
:101108008355C5002A84A93722856244F2400561C7
:1011180081B483570501C207C18399C76244F2406D
:101128008355050105612DB7F2406244056182804F
:101138001C411547636CF7141707000013070734A1
:101148008A07BA979C43411122C406C6BA972A84D3
:101158008287B747004083C787C01307500593F7B6
:10116800F70F230AF50083474501630DF7008357FE
:10117800E500C207C18399E785471CC1B2402244F4
:10118800410182802285713A034734019307500553
:101198001377F70F09C78347340193F7F70F3747DA
:1011A80000402304F7C0D9BF013F8357E400C207BA
:1011B800C18395C395471CC0854513050002352298
:1011C80085451305000215228355E4002285224433
:1011D800B2404101B5BD8357C400C207C183C9CB22
:1011E8008D471CC013050002854501228547230948
:1011F800F4002244B240014541016FF02FF9B7478E
:10120800004083C787C093F7F70F230AF5002285AC
:10121800A53D22852244B24041016FF07F930147EA
:1012280037460040834724016355F7028356E4009C
:101238001C440507958F834686C093F6F60F2380D6
:10124800D7008357E400FD17C207C1832317F400B2
:10125800D1BF8355E4002285E53B8357E400C207EC
:10126800C183E39D07F08357C400C207C183C5F358
:1012780022852244B24041016FF08FFD353D8357EE
:101288000401C207C183E39B07EEDDB78280938721
:10129800418323A00700239607002397070023987C
:1012A8000700A3890700238A07000547A38A0700C8
:1012B80023A2070023A407002389E7009387C1849A
:1012C80023A0070023960700239707002398070009
:1012D800A3890700238A070023A2070023A4070085
:1012E8002389E700A38A07008280914763EEB7024B
:1012F800170700001307071A8A05BA959C41BA9781
:101308008287B717004003A7470B1345F5FF698F7E
:1013180023AAE70A03A7070B698F23A8E70A03A7ED
:10132800070A798D23A0A70A8280B717004083A6F1
:10133800470B1347F5FFF98E23AAD70A83A6070B95
:10134800558D23A8A70A83A6070A758F23A0E70A45
:101358008280B717004003A7470B498F23AAE70AE3
:1013680003A7070B1345F5FF45BFB717004083A632
:10137800470B1347F5FF758F23AAE70A03A7070A48
:10138800598D4DB7B717004003A7470B498FEDB7E5
:10139800914763EEB702170700001307E7108A05A5
:1013A800BA959C41BA978287B717004003A7470DA3
:1013B8001345F5FF698F23AAE70C03A7070D698F6B
:1013C80023A8E70C03A7070C798D23A0A70C82801C
:1013D800B717004083A6470D1347F5FFF98E23AAD8
:1013E800D70C83A6070D558D23A8A70C83A6070C39
:1013F800758F23A0E70C8280B717004003A7470D1D
:10140800498F23AAE70C03A7070D1345F5FF45BF2E
:10141800B717004083A6470D1347F5FF758F23AA1A
:10142800E70C03A7070C598D4DB7B717004003A762
:10143800470D498FEDB7B7170040884742054181EE
:101448009377050491EB9377F5013755E801130578
:1014580005803345F50282809377050C1307000455
:101468006397E7009377F50137459C1CCDB7216555
:10147800130505D082800000DAFCFFFF04FDFFFFA2
:1014880030FDFFFF86FDFFFF04FEFFFFA6FDFFFF07
:1014980072FEFFFF9AFEFFFFC2FEFFFFDAFEFFFFAC
:1014A800F4FEFFFF04FFFFFF2CFFFFFF54FFFFFFC9
:0814B8006CFFFFFF86FFFFFF40
:0414C0009612000080
:1014C40001020304050607FF01020304050101FFED
:0C14D40001010101010101FF0000000006
:00000001FF
