:040000006F00100776
:100004000000000000000000900000208E0300208B
:10001400A9BDF9F5900000200000000000000000D8
:10002400900000209000002000000000000000006C
:10003400900000200000000090000020000000005C
:1000440092000020900000209000002090000020EA
:10005400900000209000002090000020000000008C
:100064009000002090000020900000203201002029
:1000740090000020900000209000002090000020BC
:1000840090000020900000209000002090000020AC
:1000940001A03727004083476700858BC9CB4111F6
:1000A40022C685472303F7008D47A38BF1828D4732
:1000B4002398F1821384C181970700009387777B8B
:1000C40023A4F1821C440D476384E702154763812E
:1000D400E70299EB2285971000E0E78020892285CA
:1000E400971000E0E7808093324441017300203090
:1000F400B737004083C75740858BFDF7A38C018237
:10010400A38B018223980182238C0182239901828B
:100114001385C18123A4018223A60182239A01822B
:10012400971000E0E78080841385C18155BF730078
:10013400203037370040834747409946BD8B63885A
:10014400D7023147639BE700373700408347574066
:10015400858B85C383478740D5BF1147639BE700E1
:100164001385C181971000E0E780209819A0834788
:10017400574073002030B7F707000111944B130761
:100184008008F337078093F787083EC20F100000FA
:10019400B71700401308700523800705930580FAFC
:1001A4002380B7040F10000003C6B7041376F60DBE
:1001B400A385C704238007041246732606800F1004
:1001C40000001376050255CEF336078093F68608B1
:1001D40036C40F100000238007052380B7040F10D6
:1001E4000000B70614007D89558D88C70100010001
:1001F4000100010023800704A246F3A606800F1025
:10020400000073370780137787083AC60F10000081
:10021400238007052380B7040F1000000F1000008F
:100224003727004093061005A303D78023800704D3
:10023400B247F3A707800F10000093078008F3B7B5
:10024400078093F787083ECE0F100000B7170040D1
:10025400130770052380E704130780FA2380E7045B
:100264000F10000003C7B70413670708A385E7044A
:1002740023800704F247F3A707800F1000000561ED
:1002840082801376050459C2733607801376860874
:1002940032C80F100000238007052380B7040F1015
:1002A400000037061400130606047D89518D88C7A3
:1002B4000100010001000100238007044246732667
:1002C40006800F10000073370780137787083ACA37
:1002D4000F100000238007052380B7040F100000CF
:1002E400A54793F6F60F639EF600B7270040130761
:1002F4003005A383E780B717004023800704D24763
:100304000DBFB727004013072005E5B773370780F3
:10031400137787083ACC0F10000023800705238049
:10032400B7040F10000098471367070C98C7238081
:100334000704E247FDBD011181460146814511458F
:1003440006CE7D2A93078008F3B7078093F78708C2
:100354003EC60F100000B717004013077005238036
:10036400E704130780FA2380E7040F10000003C793
:100374006704136717002383E70423800704B24745
:10038400F3A707800F100000F2400561828041113D
:100394008146014681451145A52213078008F3379C
:1003A400078093F787083EC40F100000B71700407A
:1003B400130670052380C704930680FA2380D704AC
:1003C4000F100000FD552396B70223800704A245B1
:1003D400F3A505800F100000733707801377870893
:1003E4003AC60F1000002380C7042380D7040F10DF
:1003F400000003C76704136717002383E7042380FF
:100404000704B247F3A707800F10000001A0BD47FF
:100414003305F50201007D1575FD8280411122C46A
:1004240026C206C6AA84014463179400B24022443B
:1004340092444101828005041305803E4204C13F79
:100444004180DDB72303048015472303E4800100C2
:100454002302A480828083076480E3CE07FE230303
:100464000480828083076480E3CE07FE03454480D2
:10047400828083076480E3CE07FE2302A480828007
:10048400411126C44AC24EC006C61377F50BAD47C8
:10049400AA892E8995446306F70019456537653F97
:1004A4008D444E854537FD59FD1463983401B2409F
:1004B400A2441249824941018280135509011375EE
:1004C400F50F453F2209CDB7011126CC06CEB7045E
:1004D400080051371545BD37713769372AC6A53F1E
:1004E40032459377150089EB136515001375F50FE5
:1004F400F240E24405618280FD14E9FC0145CDBF70
:10050400397126DC4ADA4ED852D656D45AD25ED045
:1005140006DE62CE66CCB7E700E07D5783AA07000B
:1005240022C603AA470023A0E71823A2E718B71797
:100534000040130770052380E704130780FA238023
:10054400E70483C74704930B75FFB684E20793FB64
:10055400FB0F8546AA892E8B328937240040E18718
:10056400015763FA76016308D50089461307000230
:100574006313D5000157D98F93F7F70FB71C0040C9
:100584002382FC0411472303E4801305F00F5D3D2F
:10059400094CD135636D7C11B7050700DA953787AF
:1005A4000700795563F2E504B3879500636EF7029B
:1005B400370B0800A94733EB65016399F90689E411
:1005C4008144513D26850DA0DA850945553D05092F
:1005D4000345F9FFFD14050B693D81C49377FB0FB7
:1005E400FDF7DD3569FD7D55B7170040130770052C
:1005F4002380E704130780FA2380E70403C7470432
:10060400418B2382E704F250B7E700E023A057119F
:1006140023A24711E25432445259C259325AA25ABF
:10062400125B825B724CE24C21618280A547639528
:10063400F90685691309F00FB3069900B3742B0109
:10064400B6941349F9FFB3749900856B3379690142
:10065400416B9387F9FFB3F7270199E363FC3401F6
:1006640093D94900C147E3E637FF99BF0569C169DA
:100674007D19D9B71305800D63886901130500023C
:100684006384790113051008CA85DD3B353D21DDFE
:100694004E99B3843441D9B7DA852D45D533CA94FC
:1006A400E30099F205097D3BA30FA9FED5BF93870B
:1006B400F9FF93F7F70F6361FC0C83C71C0413075E
:1006C4003008631FF70437070800636BEB04B307B4
:1006D4009B00B706100063F5D704334BEB00894742
:1006E4006393F9068980D549E38C04ECDA850945DE
:1006F400413B11090327C9FF91472320E4800307E5
:100704006480E34E07FE23033481FD17EDFBFD14E3
:10071400110B81C49377FB0FE9FF7D3371F5E1B5CC
:10072400B717004003C75704B70708001377070239
:1007340019E3B78707007955E378FBEA33079B0091
:10074400E3FFE7F855B58547E382F9F2DA852D45ED
:10075400053B9389F4FFE38504E6293393F73900D5
:1007640091EB832604800327090093074900E39A49
:10077400E6E43E89CE84F1BFB5476396F9001305DC
:10078400900BC93135BDB1471305B00AE38BF9FEAF
:1007940099476391F904B7050800B365BB002D457B
:1007A400C53181448D4BA149753963967401832702
:1007B40004802320F9008504E39834FF8327048010
:1007C40013172B01635507002312F900D5BB23220D
:1007D400F900FDB39D476399F90281451305B004FF
:1007E4004531BD442320090023220900FD599D39C8
:1007F40093F77400CA9703C70700FD14398D23804B
:10080400A700E39634FF6DBBA1476392F9046D39E9
:100814008144630D0B008D479304C0036308FB0000
:100824009304000563048B01930440041375C50706
:10083400E30895D8194539313939054521312685DB
:100844000D3909453D314931E31C05D669BB914752
:100854006399F90013056006F536F53E1305900912
:0C0864000DB7E38F09D4F154A9BB0000CC
:10087000971100209381818117610020130181F875
:100880001305400097F5FF1F9385C57717060020D5
:10089000130606FE63FAC5008322050023A0550057
:1008A00011059105E3EAC5FE17050000130505775C
:1008B000970500209385C5FB17060020130606FD4B
:1008C00063FAC5008322050023A055001105910598
:1008D000E3EAC5FE17050020130545FB9385C18398
:1008E0006377B500232005001105E36DB5FEFD42D9
:1008F000739002BC8D427390428093028008739083
:10090000023097F2FF1F9382E26F93E232007390FE
:100910005230970200009382E230739012347300D9
:100920002030411122C406C62A8423240500084130
:10093000854561218347C40193F7F70F81C7854738
:10094000A30EF400A30D0400231A0400230E0400D8
:10095000231B04002326040023280400231C040076
:10096000B240224441018280411106C622C4894717
:100970002A841CC508418D4589218547230DF40033
:1009800001451D258547231CF400B2402244410146
:100990008280994763F7B7009D47230DF5000D4509
:1009A00021A58D4763F7B7009147230DF500094551
:1009B000C5BF854763F7B7008947230DF500054597
:1009C000C5B7230DF5000145E1BF411106C622C49C
:1009D00091472A841CC508418D45C526835544018D
:1009E0002285453F83574401B240C207C183231C7F
:1009F000F400224441018280411122C406C6954779
:100A00002A841CC5084185454D2E835564012285E5
:100A10002244B2404101B5BF8347B50193F7F70FB8
:100A200091CB8347B5013737004093F7F70F230485
:100A3000F7408280B7370040130750052384E74012
:100A400082808357450121476366F70003574501BC
:100A50004207418381463736004063D5E60283551D
:100A600045015C4585068D8F83C7070093F7F70F17
:100A70002304F64083574501FD17C207C183231A9B
:100A8000F500E1BF82800346A5010147B73600406B
:100A9000635DC70083C78640835785010507FD173F
:100AA000C207C183231CF500E5B783574501C20780
:100AB000C1838DC318459147631EF70083554501D7
:100AC000411122C406C62A84E93522852244B24057
:100AD000410185BF83578501C207C18381C7835503
:100AE000850145BD82801C45411122C426C206C62F
:100AF0008D442A84638A970863EAF4000947638770
:100B0000E704B24022449244410182801147638C41
:100B1000E70C9546014737360040E394D7FE8347FC
:100B2000A4016354F70E835664011C480507958F92
:100B30008346864093F6F60F2380D70083576401DF
:100B4000FD17C207C183231BF400D1BF2D3F83478C
:100B5000C40193F7F70F91EF084004C48545B12C09
:100B60008547230DF4002244B240924401454101DF
:100B700025A983576401C207C183C1D722852244B6
:100B8000B240924441018DBDB737004083C78740D2
:100B90001307500593F7F70F230EF5008347C501A0
:100BA000631FF70083574501C207C183A9CB228584
:100BB000293D22852244B2409244410159B58357D0
:100BC0006501C207C18381E785471CC51DBF8357E7
:100BD0004501C207C183E1FF413B22852244B24067
:100BE0009244410115BD453583578401C207C18335
:100BF000E39907F083576401C207C183C1F32285DB
:100C00002244B2409244410129BB835564012285AC
:100C1000493383576401C207C183E39407EEC5B724
:100C200001111305800406CE22CC26CA4AC84EC63E
:100C300097F0FF1FE78060549307002023AEF180F8
:100C400093070010B714004023A0F18283A7840A01
:100C500085451305001093E7072023A4F40AB12A61
:100C60001384C1810840854537E900E0B922212677
:100C700001451D2E95450545A926B70700082320E7
:100C8000F9108D452165E92A83A7C40C21678D459C
:100C9000D98F23A6F40C1165E12283A7C40C116738
:100CA000B7190040D98F23A6F40C0947B727004095
:100CB0002380E70011472380E70037975B00130785
:100CC00007D8D8C705472381E700C1672320F9105B
:100CD00097040020938484BB2169116605478347EC
:100CE000D40193F7F70FADCB83A7890CB3E72701A6
:100CF00023A4F90C83A7890CB18F23A4F90C144405
:100D000081476396E6008347C40193F7F70F970680
:100D10000020238DF6B683C7040093F7F70FE1D3C5
:100D200083C7040093F7F70F2399F1821444E398E3
:100D3000E6FA170700201307A7B5BA9723A6F18292
:100D400083574401C207C18399CF1385C181B53947
:100D50001385C181FD3151B783A7C90CB3E72701C2
:100D600023A6F90C41BF835764011385C181C207D3
:100D7000C18391C7D53E1385C1817939B9BF553635
:100D8000A9BF9387C18123A40700239A0700239B4F
:100D90000700239C0700A38D07000547238E07004B
:100DA00023A0070023A2070023A6070023A807000B
:100DB000238DE700A38E07008280914763EEB70280
:100DC000170700001307C7228A05BA959C41BA97F6
:100DD0008287B717004003A7470B1345F5FF698FBC
:100DE00023AAE70A03A7070B698F23A8E70A03A72B
:100DF000070A798D23A0A70A8280B717004083A62F
:100E0000470B1347F5FFF98E23AAD70A83A6070BD2
:100E1000558D23A8A70A83A6070A758F23A0E70A82
:100E20008280B717004003A7470B498F23AAE70A20
:100E300003A7070B1345F5FF45BFB717004083A66F
:100E4000470B1347F5FF758F23AAE70A03A7070A85
:100E5000598D4DB7B717004003A7470B498FEDB722
:100E6000914763EEB702170700001307A7198A0519
:100E7000BA959C41BA978287B717004003A7470DE0
:100E80001345F5FF698F23AAE70C03A7070D698FA8
:100E900023A8E70C03A7070C798D23A0A70C828059
:100EA000B717004083A6470D1347F5FFF98E23AA15
:100EB000D70C83A6070D558D23A8A70C83A6070C76
:100EC000758F23A0E70C8280B717004003A7470D5A
:100ED000498F23AAE70C03A7070D1345F5FF45BF6C
:100EE000B717004083A6470D1347F5FF758F23AA58
:100EF000E70C03A7070C598D4DB7B717004003A7A0
:100F0000470D498FEDB7B71700408847420541812B
:100F10009377050491EB9377F5013755E8011305B5
:100F200005803345F50282809377050C1307000492
:100F30006397E7009377F50137459C1CCDB7216592
:100F4000130505D08280411122C406C62A84653F5C
:100F50002947B307E502B2408D83B3D78702224405
:100F60009507B3D7E70237370040C207C18323167E
:100F7000F74041018280716541111305052006C6C5
:100F8000D937B7370040130770F82381E7400D4782
:100F9000A381E74013070004A380E74005472387A8
:100FA000E740B24041018280373700408347274005
:100FB0001A0593F7F703C98F93F7F70F2301F7404B
:100FC0008280B737004003C7174019C9D98DA38065
:100FD000B74003C70740136787002380E74082803C
:100FE00093C5F5FFF98DA380B7408280E6FDFFFF32
:100FF0000EFEFFFF36FEFFFF4EFEFFFF68FEFFFF07
:1010000078FEFFFFA0FEFFFFC8FEFFFFE0FEFFFF30
:04101000FAFEFFFFE6
:04101400820D000049
:1010180001020304050607FF01020304050101FF9D
:0C10280001010101010101FF00000000B6
:00000001FF
